:100000000C9424250C9464250C9464250C9464258C
:100010000C9464250C9464250C9464250C9464253C
:100020000C9464250C9464250C9464250C9464252C
:100030000C9464250D94457A0C9464250C946425E5
:100040000C9464250C94418D0C9464250C946425C7
:100050000C9464250C94EE8B0C9464250D94FB7920
:100060000C9464250D94E03A0D94D63A0C946425D2
:100070000C9464250C9464250C9464250C946425DC
:100080000D947D2C0C9464250C9464250C946425AB
:100090000C9464250C9464250C9464250C946425BC
:1000A0000C9464250C9464250D944F2C0C946425B9
:1000B0000C9464250C9464250C9464250C9464259C
:1000C0000C9464250C9464250C9464250C9464258C
:1000D0000C9464250C9464250C9464250C9464257C
:1000E0000C946425084AD73B3BCE016E84BCBFFD0F
:1000F000C12F3D6C74319ABD56833DDA3D00C77FF8
:1001000011BED9E4BB4C3E916BAAAABE0000008090
:100110003F05A84CCDB2D44EB93836A9020C50B91F
:10012000918688083CA6AAAA2ABE000000803F0744
:10013000634236B79BD8A71A39685618AEBAAB5582
:100140008C1D3CB7CC5763BD6DEDFD753EF6177247
:1001500031BF000000803F08000000BE9224491219
:100160003EABAAAA2ABECDCCCC4C3E00000080BE3D
:10017000ABAAAAAA3E00000000BF000000803F001A
:1001800000000000084178D3BB4387D1133D190E0E
:100190003CC3BD4282AD2B3E68EC8276BED98FE176
:1001A000A93E4C80EFFFBE01C4FF7F3F000000006E
:1001B00000000D941D190D94AB500D94702B0D94EF
:1001C0004B500D9442500D948C780D9490780D9472
:1001D000DE780D94EC550D948A2B0D941E520D94DF
:1001E000A42B0D9419190D94F9780D9465860D942E
:1001F00048780D9443790D944F530D946E780D9477
:100200002E790D94F08A0D944A8A0D945F780D949E
:10021000ED550D9458790D94BF550D94BE2B0D944A
:1002200092860D949A780D9442530D944D790D94C5
:1002300032790D9463780D94BB890D946B780D948D
:100240003D290D9467780D94298A0D9478780D9442
:1002500082780D947E780D9432530D943B8A0D94E0
:100260003D790D94F1150D944D780D94292D0D9433
:1002700094780D949E780D9474780D9486784E4100
:100280004E494E495459494E46CDCCCC3D0AD72310
:100290003C17B7D13877CC2B329595E6241FB14F58
:1002A0000A000020410000C84200401C4620BCBE9D
:1002B0004CCA1B0E5AAEC59D7400407A10F35A000A
:1002C000A0724E18090010A5D4E80000E87648177F
:1002D0000000E40B54020000CA9A3B000000E1F564
:1002E00005000080969800000040420F000000A02A
:1002F0008601000000102700000000E80300000055
:10030000006400000000000A00000000000100007E
:100310000000002C76D888DC674F0823DFC1DFAEF1
:1003200059E1B1B796E5E3E453C63AE651997696BA
:10033000E8E6C28426EB898C9B62ED407C6FFCEF83
:10034000BC9C9F40F2BAA56FA5F490055A2AF75CB1
:10035000936B6CF9676DC11BFCE0E40D47FEF52063
:10036000E6B500D0ED902E0300943577050080842B
:100370001E080000204E0A000000C80C333333333F
:100380000F986E12831141EF8D2114893BE65516AB
:10039000CFFEE6DB18D1844B381BF77C1D901DA4E3
:1003A000BBE424203284725E228100C9F124ECA1D6
:1003B000E53D27554E4C4F41442046494C414D4563
:1003C0004E54004C4F41442046494C414D454E54FB
:1003D0000046494C414D454E54204348414E474507
:1003E0000041425300504C410020002500202020B5
:1003F00020202020002020202000657272001FE0B5
:10040000201020102010102010202010201030303C
:100410000840048003001FE03FF03FF03FF01FE082
:100420001FE03FF03FF03FF00FC0078003003FFFA9
:10043000F038007030FC3020FC1020781020301094
:100440002C00D02E31D02F7BD02F7BD02E31D02C32
:1004500000D020301020781020FC1030FC30380004
:10046000703FFFF03FFFF038007031863023871077
:100470002787902F87D02F03D0203010207810208E
:1004800078102030102F03D02F87D0278790238714
:10049000103186303800703FFFF01FFFF81FFFF863
:1004A0000410400208200208200410400820801098
:1004B00041001041000820800410400000001FFF90
:1004C000F81FFFF842656400456E636C6F737572C8
:1004D00065005072696E742041626F7274656400C9
:1004E0004D32350050617573696E672E2E2E004DAA
:1004F0003234003F0049676E6F7265005265736564
:100500007400496E697469616C697A65204545506B
:10051000524F4D004C6F6164206D6D00556E6C6FD5
:100520006164206D6D0046696C2E204469612E0067
:100530004F6666004F6E004520696E206D6D5E331C
:100540000020082046616374002008204D61780077
:100550002008204D696E004D696E205472617665E9
:100560006C205370656564004D696E2056656C6F34
:1005700063697479004D617820402053706565642B
:10058000004D6178204520416363656C004D6178C2
:10059000204020416363656C0054726176656C2075
:1005A000416363656C0052657472616374204163DA
:1005B00063656C00416363656C0040207374657013
:1005C000732F6D6D00416476616E636564205365C1
:1005D0007474696E6773003F0043616E63656C00FD
:1005E000496E6974004D34323800496E697469612E
:1005F0006C697A6520454550524F4D0046696C61E3
:100600006D656E740054656D7065726174757265A8
:100610000053746570732F6D6D004A756E63746955
:100620006F6E2044657600416363656C657261742A
:10063000696F6E004D617820537065656420286D88
:100640006D2F73290053657420486F6D65204F66C8
:10065000667365747300436F6E6669677572617463
:10066000696F6E004265642049646C652054656D55
:1006700070004E6F7A7A6C652049646C6520546511
:100680006D700054656D70657261747572650054AB
:10069000696D656F75740044697361626C6520549F
:1006A000696D656F7574004D3837004261636B008A
:1006B00053572D4D6F64650053746F770044657018
:1006C0006C6F790053656C662D54657374005265C8
:1006D00073657400426564004E6F7A7A6C650046FB
:1006E000616E20537065656400436F6E666967755F
:1006F000726174696F6E00526573746F7265204425
:10070000656661756C7473004C6F61642053657429
:1007100074696E67730053746F72652053657474E7
:10072000696E677300507265686561742024205398
:10073000657474696E6773004F6666004F6E005093
:100740006F776572204F7574616765004C43442074
:10075000436F6E747261737400486F74656E6420C9
:1007600049646C652054696D656F757400424C5422
:100770006F75636800416476616E636564205365DC
:100780007474696E6773004D61696E204D656E7596
:10079000004D37303220542564004D363030204231
:1007A0003020542564004D373032203B2564004D05
:1007B00037303120542564004368616E67652046F8
:1007C000696C616D656E7400507265686561742056
:1007D000437573746F6D0050726568656174202491
:1007E000004261636B004D363030423000436F6E23
:1007F00074696E7565005075726765206D6F7265FE
:1008000000524553554D45204F5054494F4E533A91
:10081000005052494E5420504155534544002F003A
:10082000200020204E6F7A7A6C653A200050617269
:100830006B696E672E2E2E0000005761697420666A
:100840006F720066696C616D656E74206368616EBD
:10085000676500746F207374617274005761697406
:1008600020666F720066696C616D656E7420756ECE
:100870006C6F616400004E6F7A7A6C652068656108
:1008800074696E6700506C65617365207761697487
:100890002E2E2E0000507265737320627574746F73
:1008A0006E00746F2068656174206E6F7A7A6C6573
:1008B0000000496E736572742066696C616D656EC7
:1008C0007400616E64207072657373206275747455
:1008D0006F6E00746F20636F6E74696E756500577C
:1008E00061697420666F720066696C616D656E7413
:1008F000206C6F61640000507265737320427574E0
:10090000746F6E00746F20726573756D6520707200
:10091000696E7400005761697420666F722070728E
:10092000696E7400746F20726573756D652E2E2E5E
:1009300000005761697420666F720066696C616DB2
:10094000656E7420707572676500004D313030300F
:100950000053746F70205072696E74005265737525
:100960006D65205072696E7400506F776572204F0C
:1009700075746167650056696F6C657400496E64D3
:1009800069676F00426C756500477265656E005956
:10099000656C6C6F77004F72616E676500526564BD
:1009A000005768697465004272696768746E6573A0
:1009B0007300426C756520496E74656E7369747955
:1009C00000477265656E20496E74656E736974794F
:1009D0000052656420496E74656E73697479004CC9
:1009E000454420436F6E74726F6C00437573746F6F
:1009F0006D204C6967687473004C69676874205097
:100A00007265736574730044656661756C74004F3C
:100A10006666004F6E004C6967687473004D6169CB
:100A20006E204D656E75003F004261636B0053742C
:100A30006F70003F004E4F005945530053656C6581
:100A400063742066726F6D205344204361726400AA
:100A500052656C6561736520534420436172640084
:100A60004D3232004C696768747300436F6E66697B
:100A70006775726174696F6E0054656D706572613F
:100A800074757265004368616E67652046696C61C4
:100A90006D656E740050726F626520616E64204CEB
:100AA0006576656C004D6F74696F6E005265737585
:100AB0006D65205072696E740054756E65005374D4
:100AC0006F70205072696E740050617573652050AC
:100AD00072696E7400496E666F2053637265656E4D
:100AE000003F005374617274205072696E74004349
:100AF000616E63656C005072696E740043616E6E66
:100B00006F7420656E746572207375626469723AE1
:100B1000200002202E2E004D61696E204D656E75FD
:100B2000002100486F74656E6420746F6F20636FDE
:100B30006C64004261636B0050726F6365656400B2
:100B40004D6F7665204578747275646572004D6FDF
:100B500074696F6E0044697361626C6520537465DB
:100B60007070657273004D3834004175746F2048A1
:100B70006F6D65004D61696E204D656E7500537433
:100B80006F72652053657474696E6773005A2050E4
:100B9000726F62652057697A6172640050726F6289
:100BA000652040204F66667365740053746F77202C
:100BB0005A2D50726F6265004D34303200446570BA
:100BC0006C6F79205A2D50726F6265004D34303150
:100BD00000466164652048656967687400556E6900
:100BE0006669656420426564204C6576656C696E53
:100BF00067004F6666004F6E00426564204C657664
:100C0000656C696E67004175746F20486F6D650093
:100C10004D61696E204D656E750043616E63656C54
:100C200000446F6E6500302E30323500302E3100BA
:100C30004D6F766520246D6D00312E300050726F3F
:100C400062652040204F6666736574005A004D6FE0
:100C50007665204E6F7A7A6C6520746F20426564E9
:100C6000004D6F76696E6720746F2050726F6269F5
:100C70006E6720506F730050726F62696E67205A02
:100C8000205265666572656E6365004732385A00AA
:100C9000507265686561742024204265640050725A
:100CA0006568656174202420486F74656E64005423
:100CB000656D706572617475726500436F6F6C6409
:100CC0006F776E005072656865617420240046611C
:100CD0006E20537065656400426564004E6F7A7AD9
:100CE0006C65004D61696E204D656E7500426162F4
:100CF0007973746570205A0042616279737465700B
:100D0000204000466C6F770046616E205370656529
:100D10006400426564004E6F7A7A6C6500537065BA
:100D20006564004D61696E204D656E75005A2056F0
:100D3000616C7565004732380A4D313930205325D2
:100D4000690A4D313039205325690A47323920501C
:100D500031004265642054656D7000486F74656EA3
:100D6000642054656D70002E256900473239503675
:100D7000432D0048656967687420416D6F756E7416
:100D80000041646A757374204D6573682048656915
:100D90006768740046696E652054756E6520436C03
:100DA0006F73657374004732395034540046696E6E
:100DB000652054756E6520416C6C004732395034A3
:100DC0005254004C6576656C204D6573680053691C
:100DD000646520506F696E74730047726964204DBA
:100DE000657368204C6576656C696E6700332D50BD
:100DF0006F696E74204C6576656C696E670047326A
:100E0000394A3000473239503352432E2569004D5C
:100E1000616E75616C2046696C6C2D696E0047329D
:100E200039503242543000536D6172742046696CFF
:100E30006C2D696E00473239503354300046696C6E
:100E40006C2D696E20416D6F756E74004D65736811
:100E500020696E76616C6964617465642E0A00E5D0
:100E600003E103496E666F2053637265656E004946
:100E70006E76616C696461746520436C6F73657331
:100E800074004732394900496E76616C6964617457
:100E90006520416C6C00436F6E74696E756520420D
:100EA0006564204D65736800473239503143004610
:100EB000696C6C2D696E204D657368004275696CB4
:100EC0006420436F6C64204D657368004732394E6F
:100ED0005031004275696C6420437573746F6D20E6
:100EE0004D657368004732380A4D31393049310A4F
:100EF0004D31303949310A47323950310A4D31309C
:100F00003453300A4D3134305330004275696C64CB
:100F1000204D65736820282429004732380A4D3156
:100F2000393049300A4D31303949300A4732395069
:100F3000310A4D31303453300A4D313430533000A2
:100F4000473239256325690A4D31313720004D6517
:100F50007368202569204C6F61646564004D65737A
:100F600068202569205361766564005361766520A9
:100F7000426564204D657368004C6F616420426572
:100F800064204D657368004D656D6F727920536CF8
:100F90006F74004E6F2053746F7261676500473243
:100FA0003950345800202D2D2D2D2D005A3A00296E
:100FB000002C00593A004572723A20454550524F74
:100FC0004D20436F7272757074004572723A2045FD
:100FD0004550524F4D20435243004572723A2045CE
:100FE0004550524F4D2053697A65004572723A2040
:100FF000454550524F4D2056657273696F6E0048DB
:101000006F6D696E672058595A00473238004F6635
:1010100066205072696E746572204261636B7570F0
:1010200000473239532D31004F7574707574206646
:101030006F7220435356004732395431004F757454
:1010400070757420666F7220486F73740047323970
:101050005430004D657368204C6576656C696E6729
:101060000045646974204D657368004D616E75615B
:101070006C6C79204275696C64204D65736800471B
:101080003239493939390A473239503242543000FD
:101090004275696C64204D65736800556E696669B8
:1010A000656420426564204C6576656C696E6700F6
:1010B0004F75747075742055424C20496E666F00F0
:1010C000473239570055424C20546F6F6C73004FB4
:1010D0007574707574204D657368204D6170004D96
:1010E0006573682053746F72616765004D6573683E
:1010F00020456469746F72004661646520486569C3
:10110000676874004F6666004F6E00426564204C4D
:101110006576656C696E67004D6F74696F6E004728
:1011200032394A256900486F6D696E6720466169EA
:101130006C6564006F70656E0054524947474552B4
:101140004544003A20007A5F6D696E00795F6D69F1
:101150006E00785F6D696E005265706F7274696EB3
:101160006720656E6473746F702073746174757337
:101170000A0020746F6F206C6F6E67206578747240
:101180007573696F6E2070726576656E7465640A3A
:101190000020636F6C6420657874727573696F6E7C
:1011A0002070726576656E7465640A00486F6D65BF
:1011B000202573204669727374000000000000004F
:1011C0000000000000005761726E696E673A2048A7
:1011D0006F6D696E672042756D7020446976697322
:1011E0006F72203C20310A000202040000A040007F
:1011F00000A04000000040000000010000000100CD
:10120000008000555555000000400033333300AADC
:10121000AA2A004992240000002000C7711C0099EE
:10122000991900D1451700555515003BB1130024FD
:1012300049120011111100000010000F0F0F00E300
:10124000380E0043790D00CCCC0C00C3300C00E804
:10125000A20B0064210B00AAAA0A00703D0A009D9F
:10126000D80900427B090092240900DCD3080088D9
:101270008808001042080000000800F0C10700873D
:1012800087070075500700711C07003EEB0600A1A0
:10129000BC06006990060066660600703E060061A6
:1012A00018060017F4050074D105005BB00500B204
:1012B000900500627205005555050078390500B8A3
:1012C0001E0500050505004EEC040087D40400A1AE
:1012D000BD040090A7040049920400C17D0400EE03
:1012E000690400C7560400444404005C320400084A
:1012F00021040041100400000004003FF00300F846
:10130000E0030026D20300C3C30300CCB503003AB8
:10131000A803000A9B0300388E0300C08103009FCE
:10132000750300D0690300505E03001D53030034B1
:10133000480300913D0300333303001629030038AE
:101340001F030097150300300C0300030303000B79
:10135000FA020049F10200BAE802005CE002002D46
:10136000D802002DD0020059C80200B0C0020031DE
:10137000B90200DAB10200AAAA0200A0A30200BCCE
:101380009C0200FA9502005C8F0200DF8802008256
:10139000820200457C02002776020027700200438B
:1013A0006A02007C640200D05E02003F590200C85D
:1013B000530200FFFDFCFAF8F6F4F2F0EEECEAE975
:1013C000E7E5E3E1E0DEDCDAD9D7D5D4D2D0CFCD82
:1013D000CBCAC8C7C5C3C2C0BFBDBCBAB9B7B6B413
:1013E000B3B2B0AFADACAAA9A8A6A5A4A2A1A09E75
:1013F0009D9C9A99989795949392908F8E8D8B8AB5
:101400008988878684838281807F7E7D7B7A7978D4
:1014100077767574737271706F6E6D6C6B6A6968D4
:1014200067666564636261605F5E5D5C5B5A5958C4
:10143000585756555453525150504F4E4D4C4B4A9D
:101440004A4948474646454443424241403F3E3E62
:101450003D3C3B3B3A393838373635353433323218
:101460003130302F2E2E2D2C2B2B2A2929282727BF
:1014700026252524232322212120201F1E1E1D1C5A
:101480001C1B1B1A191918181716161515141313E7
:1014900012121111100F0F0E0E0D0D0C0C0B0A0A6B
:1014A00009090808070706060505040403030202E4
:1014B00001000053544F505045442E200050726993
:1014C0006E7465722073746F7070656420647565E6
:1014D00020746F206572726F72732E2046697820B7
:1014E000746865206572726F7220616E6420757316
:1014F00065204D39393920746F20726573746172BB
:10150000742E202854656D70657261747572652043
:1015100069732072657365742E2053657420697435
:101520002061667465722072657374617274696E8D
:1015300067290A00206572726F72202D2072657310
:10154000746172742077697468204D3939390A00E2
:10155000424C546F7563680021212053544F502032
:1015600063616C6C65642062656361757365206F8F
:10157000662000000075430000754300007A4300B8
:101580000000000000000000000000536574746952
:101590006E67732053746F72656400290A002062BD
:1015A000797465733B2063726320005365747469BA
:1015B0006E67732053746F72656420280045455030
:1015C000524F4D206461746173697A65206572724F
:1015D0006F722E0A003F4D65736820746F6F206232
:1015E000696720666F7220454550524F4D2E0A00A4
:1015F000202863616C63756C6174656429210A003D
:1016000020213D2000454550524F4D20435243205C
:101610006D69736D61746368202D202873746F7217
:101620006564292000454550524F4D20436F72722A
:101630007570740A002053697A653A2000496E6417
:1016400065783A200055424C2072657365740A0033
:10165000206C6F616465642066726F6D2073746FB7
:10166000726167652E0A004D6573682000206279FB
:101670007465733B2063726320002073746F72651E
:10168000642073657474696E67732072657472691F
:1016900065766564202800206D65736820736C6F23
:1016A000747320617661696C61626C652E00736C85
:1016B0006F742E0A003F496E76616C696420004D9C
:1016C00065736820736176656420696E20736C6F42
:1016D0007420003F556E61626C6520746F207361E9
:1016E0007665206D65736820646174612E0A002040
:1016F000736C6F743D00206D65736865735F656E14
:10170000643D004532454E443D0048617264636F5C
:101710006465642044656661756C742053657474F7
:10172000696E6773204C6F61646564000000164445
:101730000000164400002041000048420000A04282
:101740000000A0420000C8438FC2BF42B80B000097
:10175000B80B0000640000001027000020286D6D09
:1017600029004F4646004F4E00203B204C657665D1
:101770006C696E67200020204D34323020530055B4
:101780006E696669656420426564204C6576656CA7
:10179000696E670020460020420020480020204D4E
:1017A0003134352053004D6174657269616C206875
:1017B000656174757020706172616D6574657273B6
:1017C00000206D65736865732E0A0A004545505206
:1017D0004F4D2063616E20686F6C6420004163741C
:1017E000697665204D65736820536C6F7420002006
:1017F000204D3134392043203B20556E69747320CD
:10180000696E2043656C736975730A0054656D7069
:101810006572617475726520556E6974730020205D
:10182000473231203B004C696E65617220556E690C
:10183000747300204D61726C696E3D563930290A0F
:1018400000454550524F4D2076657273696F6E208A
:101850006D69736D617463682028454550524F4D22
:101860003D0024F4D43050C38D20C3A24117828B95
:101870007011127A900D826CDA0AA861E108C758DB
:101880006607615142061F4B5E05C145A6041B4118
:101890001204093D9703723931034136DB02663386
:1018A0009202D4305302812E1D02642CEE01762A5E
:1018B000C501B128A101102781018F2564012B24C6
:1018C0004A01E1223401AD2120018D200C01811F4C
:1018D000FC00851EED00981DDF00B91CD200E71B3F
:1018E000C700201BBB00651AB200B319A9000A1972
:1018F000A0006A189800D217920040178A00B61606
:10190000840032167E00B41579003B157400C714AC
:101910006F0058146A00EE136600881362002613E5
:101920005E00C8125B006D12570016125500C111FF
:10193000510070114E0022114C00D61049008D103C
:1019400046004710450002104200C00F4000800FC3
:101950003E00420F3C00060F3A00CC0E3900930EB9
:1019600037005C0E3500270E3400F30D3200C10D38
:101970003100900D2F00610D2F00320D2D00050D4F
:101980002C00D90C2A00AF0C2A00850C28005D0C15
:101990002800350C27000E0C2500E90B2500C40B90
:1019A0002400A00B23007D0B22005B0B21003A0BCF
:1019B0002100190B2000F90A1F00DA0A1F00BB0AD8
:1019C0001E009D0A1D00800A1C00640A1C00480AB3
:1019D0001C002C0A1B00110A1A00F7091A00DD0965
:1019E0001900C4091900AB091800930918007B09F4
:1019F0001700640917004D09170036091600200961
:101A000015000B091500F6081500E1081500CC08B3
:101A10001400B8081400A4081300910813007E08ED
:101A200013006B081200590812004708120035080D
:101A30001200230811001208110001081000F1071C
:101A40001100E0071000D0071000C0070F00B10719
:101A50001000A1070F0092070F0083070F00740703
:101A60000E0066070E0058070E004A070E003C07DE
:101A70000E002E070D0021070D0014070D000707AB
:101A80000D00FA060D00ED060C00E1060D00D4066F
:101A90000C00C8060C00BC060C00B0060B00A50626
:101AA0000C0099060B008E060B0083060B007806CF
:101AB0000B006D060B0062060B0057060A004D0670
:101AC0000A0043060B0038060A002E060A00240608
:101AD00009001B060A0011060A0007060900FE0598
:101AE0000A00F4050900EB050900E2050900D90523
:101AF0000900D0050900C7050800BF050900B605A3
:101B00000900AD050800A50508009D05080095051C
:101B100009008C050800840508007C050700750590
:101B200008006D050800650507005E0508005605FC
:101B300007004F0508004705070040050700390565
:101B40000700320507002B050700240507001D05C7
:101B50000700160507000F05060009050700020526
:101B60000600FC040700F5040600EF040700E80483
:101B70000600E2040600DC040600D6040600D004D9
:101B80000700C9040500C4040600BE040600B8042A
:101B90000600B2040600AC040600A6040500A10479
:101BA00006009B04050096040600900405008B04C3
:101BB000060085040500800405007B04050076040A
:101BC0000600700405006B0405006604050061044E
:101BD00005005C04050057040500520405004D048F
:101BE000050048040400440405003F0405003A04CD
:101BF000040036040500310405002C040400280408
:101C00000500230404001F0405001A040400160440
:101C10000400120405000D04040009040400050476
:101C2000040001040500FC030400F8030400F403AD
:101C30000400F0030400EC030400E8030400E403E0
:101C40000400E0030400DC030400D8030400D40310
:101C50000300D1030400CD030400C9030400C5033D
:101C60000400000000000000000000000000000070
:101C700000000000000000000000D1036D64035765
:101C80000D0347C6023B8B023259022B2E02250957
:101C90000221E8011CCC011AB201179B0114870133
:101CA0001374011163010F54010E46010D39010D2A
:101CB0002C010B21010A17010A0D0109040108FC7E
:101CC0000008F40007ED0007E60007DF0006D90072
:101CD00006D30005CE0006C80005C30004BF0005FA
:101CE000BA0004B60004B20004AE0004AA0004A6C0
:101CF0000003A300049F00039C00039900039600C7
:101D0000039300029100038E00028C0003890002FD
:101D10008700038400028200028000027E00027CB1
:101D200000027A000278000276000175000273005A
:101D3000027100017000026E00016D00026B000173
:101D40006A00026800016700026500016400016327
:101D500000016200026000015F00015E00015D00A1
:101D6000015C00015B00015A0001590001580001AB
:101D70005700015600015500015400015300015263
:101D800000015100005100015000014F00014E00C0
:101D9000014D00004D00014C00014B00014A0000C4
:101DA0004A0001490001480000480001470001467F
:101DB00000004600014500004500014400014300C9
:101DC00000430001420000420001410000410001C7
:101DD0004000004000013F00003F00013E00003E87
:101DE00000013D00003D00013C00003C00013B00C3
:101DF000003B00013A00003A0001390000390000C0
:101E00003900013800003800013700003700003782
:101E100000013600003600003600013500003500B4
:101E200001340000340000340001330000330000AE
:101E30003300013200003200003200013100003175
:101E4000000031000031000130000030000030009F
:101E5000012F00002F00002F00002F00012E000096
:101E60002E00002E00012D00002D00002D00002D61
:101E700000012C00002C00002C00002C00012B0085
:101E8000002B00002B00002B00012A00002A00007C
:101E90002A00002A00002A00012900002900002948
:101EA0000000290001280000280000280000280068
:101EB000002800012700002700002700002700005D
:101EC000270001260000260000260000260000262C
:101ED0000000260001250000250000250000250047
:101EE000002500002500012400002400002400003B
:101EF000240000240000240001230000230000230C
:101F00000000230000230000230001220000220023
:101F10000022000022000022000022000022000116
:101F200021000021000021000021000021000021EB
:101F300000002100012000002000002000002000FF
:101F4000002000002000002000002000011F0000F1
:101F50001F00001F00001F00001F00001F00001FC7
:101F6000000020436F756E7420583A00004265648B
:101F700000453100626564002C2073797374656DCF
:101F80002073746F70706564212048656174657298
:101F90005F49443A20004572723A204D41585445F9
:101FA0004D50004D415854454D502074726967673B
:101FB000657265640048656174696E672046616991
:101FC0006C65640048656174696E67206661696C60
:101FD0006564004572723A204D494E54454D50009B
:101FE0004D494E54454D502074726967676572655E
:101FF0006400544845524D414C2052554E41574182
:102000005900546865726D616C2052756E6177611C
:102010007900202F002042403A0020403A0020570B
:102020003A007C3C3E5E2B3D3F2F5B5D3B2C2A22E1
:102030005C005761726E696E673A005344204361D9
:10204000726420496E6974204661696C00534420B3
:1020500063617264206F6B0A006F70656E526F6F00
:1020600074206661696C65640A00766F6C756D65D5
:102070002E696E6974206661696C65640A004E6F32
:1020800020534420636172640A000A4D3234004DCB
:102090003233202573002E0A006F70656E20666152
:1020A000696C65642C2046696C653A200046696C51
:1020B000652073656C65637465640A002053697AF2
:1020C000653A200046696C65206F70656E65643AFC
:1020D0002000454E4420535542524F5554494E45D9
:1020E0000A002220706F73002220706172656E7486
:1020F0003A2200535542524F5554494E45204341D0
:102100004C4C207461726765743A220053756263A7
:10211000616C6C204F766572666C6F7700457863F2
:102120006565646564206D617820535542524F5552
:1021300054494E452064657074683A002E0A004484
:10214000656C6574696F6E206661696C65642C20CE
:1021500046696C653A200046696C652064656C656B
:102160007465643A0057726974696E6720746F20F1
:1021700066696C653A2000434F4D4D554E494341C9
:1021800054494F4E0044525952554E004552524FF9
:10219000525300494E464F004543484F004D32349C
:1021A00053004D323320004739322E394500473134
:1021B00046004731463630305A00473146333030DA
:1021C000305800473132004D31303650004D3130FB
:1021D0003953004D32303044004739322E395A00DD
:1021E0004D3432305300473238523058590047315D
:1021F000463630305A004739322E395A0047393284
:102200002E394530004D31303953004D313930537E
:10221000004D3432305330004F46460A0046616468
:1022200065204865696768742000426564204C65D4
:1022300076656C696E6720004661696C6564207420
:102240006F20656E61626C6520426564204C657626
:10225000656C696E670A00496E76616C6964206D11
:102260006573682E0A0076616C69640A53746F7234
:1022700061676520736C6F743A2000696E004D656C
:10228000736820697320003F496E76616C69642031
:1022900073746F7261676520736C6F742E20557351
:1022A00065203020746F20003F454550524F4D202F
:1022B00073746F72616765206E6F742061766169F7
:1022C0006C61626C652E0A0020440020204D323083
:1022D00030205300202844697361626C6564293A98
:1022E0000046696C616D656E742073657474696E07
:1022F00067730020204D3230312058004D61782026
:10230000416363656C65726174696F6E2028756ED8
:102310006974732F7332290020204D3230332058D6
:10232000004D61782066656564726174657320286C
:10233000756E6974732F73290020520020204D326E
:102340003034205000416363656C65726174696F5D
:102350006E2028756E6974732F7332292028503CC3
:102360007072696E742D616363656C3E20523C72BD
:102370006574726163742D616363656C3E20543CC7
:1023800074726176656C2D616363656C3E29002013
:102390004A0020540020530020204D323035204286
:1023A00000416476616E6365642028423C6D696E0D
:1023B0005F7365676D656E745F74696D655F757376
:1023C0003E20533C6D696E5F66656564726174653D
:1023D0003E20543C6D696E5F74726176656C5F6619
:1023E000656564726174653E204A3C6A756E635F20
:1023F0006465763E290020440020490020204D33AA
:102400003031205000486F74656E6420504944009C
:1024100020440020490020204D3330342050004219
:102420006564205049440020580020204D61783ACE
:102430002000200020204D696E3A2000203B200023
:1024400020204D3231312053005761726E696E6722
:102450003A20436C65616E20436972636C6520723B
:10246000657175697265732058590A005761726EFB
:10247000696E673A20526164697573204F757420E4
:102480006F662052616E67650A004E6F7A7A6C65DE
:1024900020746F6F20636F6C64202D20536B697004
:1024A00070696E6720776970650A0048656164200D
:1024B00063616E6E6F74206265207061726B65641B
:1024C00000507265737320627574746F6E20746F40
:1024D00020726573756D650A00496E7365727420AC
:1024E00066696C616D656E7420616E6420707265E2
:1024F000737320627574746F6E0A0052656865614B
:102500007420446F6E6500526568656174696E671A
:102510002E2E2E00507265737320627574746F6E68
:1025200020746F2068656174206E6F7A7A6C650A1A
:1025300000496E736572742066696C616D656E74B6
:1025400020616E6420707265737320627574746F9D
:102550006E0A00203B0020550020204D36303320ED
:102560004C0046696C616D656E74206C6F61642F00
:10257000756E6C6F616400203B200020204D34316B
:1025800033205300506F7765722D6C6F7373207218
:1025900065636F76657279003B200020496E766135
:1025A0006C69642065787472756465722000536C80
:1025B0006565702E2E2E005B505D61726B696E67D3
:1025C000207374796C652028302E2E34292E003F1C
:1025D000496E76616C696420005A2050726F6265A2
:1025E0002050617374204265640A005A2050726F53
:1025F0006265205061737420426564005A205072F5
:102600006F626520506173742042656400205A3AFD
:102610000020593A0042656420583A004D657368BD
:1026200020706F696E74206F7574206F6620726100
:102630006E67650A00436C69636B20746F20526596
:1026400073756D652E2E2E004E6F204D6F76652EA4
:1026500000456E642066696C65206C6973740A00BD
:10266000426567696E2066696C65206C6973740ADF
:10267000004E6F206D656469610A005344206361F8
:1026800072642072656C65617365640A00286E6F00
:102690002066696C65290043757272656E742066E8
:1026A000696C653A20004E6F742053442070726943
:1026B0006E74696E670A005344207072696E7469A3
:1026C0006E67206279746520002569730025696D45
:1026D00020256973002569682025696D20256973A7
:1026E00000256964202569682025696D20256973A6
:1026F0000025697920256964202569682025696D90
:1027000020256973005072696E742074696D653A92
:1027100020006F6B004C696E653A20006F666600A2
:10272000982193218C218521772144454255473AB0
:10273000004D3131322053687574646F776E004DEF
:102740003131332053003344205072696E74657206
:10275000204F46462E0020732E0A00496E61637496
:1027600069766974792074696D656F7574200043AA
:102770002E0A003F49646C652054696D656F75745D
:102780002028542920747269676765722074656D0A
:1027900070657261747572652073686F756C642002
:1027A0006265206F76657220002F2F004D31343521
:1027B00020533C696E6465783E206F7574206F66A7
:1027C0002072616E67652028302D31290A003F4A4A
:1027D000206F7574206F662072616E6765202830E7
:1027E0002E303120746F20302E33290A00250A0044
:1027F00046523A0020466C6F773A20003A2000207B
:10280000536572766F2000206F7574206F6620729A
:10281000616E67650A00536572766F2000646973A4
:1028200000656E0043290061626C656420286D6953
:102830006E2074656D702000436F6C642065787441
:1028400072756465732061726520004D6573682040
:10285000706F696E74206F7574206F662072616E80
:1028600067650A004D34323120696E636F7272659C
:10287000637420706172616D657465722075736137
:1028800067650A004F666673657473204170706CEB
:10289000696564004D494E2F4D415820546F6F209B
:1028A00046617200546F6F206661722066726F6DB0
:1028B000204D494E2F4D41580A00454550524F4D2D
:1028C000204F4B0A00290A0020746F20003F5A2035
:1028D0006F7574206F662072616E6765202800290D
:1028E0000A0020746F20003F59206F7574206F66B6
:1028F0002072616E6765202800290A0020746F200D
:10290000003F58206F7574206F662072616E676596
:102910002028004D383400446F6E65207072696E57
:1029200074696E672066696C650A004D3737004D23
:1029300033310020204D323036205800486F6D650D
:10294000206F6666736574004361703A00434F4EB2
:102950004649475F4558504F5254004D45415450E9
:1029600041434B00434F4F4C45525F54454D5045FA
:10297000524154555245004348414D4245525F54DF
:10298000454D50455241545552450045505F4241D6
:1029900042595354455000424142595354455050B6
:1029A000494E470041524353004D4F54494F4E5FEB
:1029B0004D4F44455300544845524D414C5F505291
:1029C0004F54454354494F4E00455854454E444595
:1029D000445F4D323000435553544F4D5F4649528A
:1029E0004D574152455F55504C4F4144004C464E67
:1029F0005F5752495445004C4F4E475F46494C453E
:102A00004E414D45004155544F5245504F52545F31
:102A100053445F5354415455530053445F575249F4
:102A2000544500524550454154004D554C54495F62
:102A3000564F4C554D45005344434152440050526B
:102A40004F4D50545F535550504F525400484F53C0
:102A5000545F414354494F4E5F434F4D4D414E44A7
:102A60005300454D455247454E43595F50415253DF
:102A7000455200434153455F4C494748545F4252D9
:102A8000494748544E45535300544F47474C455FC0
:102A90004C494748545300534F4654574152455FA1
:102AA000504F574552004255494C445F50455243A0
:102AB000454E54004C4556454C494E475F444154A1
:102AC00041005A5F50524F42450052554E4F5554A7
:102AD000004155544F4C4556454C005052494E54B8
:102AE0005F4A4F420050524F4752455353004155A1
:102AF000544F5245504F52545F54454D500041552C
:102B0000544F5245504F52545F504F5300564F4C04
:102B1000554D455452494300454550524F4D004292
:102B2000494E4152595F46494C455F5452414E53BC
:102B30004645520053455249414C5F584F4E5F58ED
:102B40004F4646004649524D574152455F4E414D12
:102B5000453A4D61726C696E206275676669782DC1
:102B6000322E312E7820284A756E202034203230C3
:102B700032362031353A34353A34312920534F55E5
:102B80005243455F434F44455F55524C3A67697421
:102B90006875622E636F6D2F4D61726C696E466948
:102BA000726D776172652F4D61726C696E20505243
:102BB0004F544F434F4C5F56455253494F4E3A3155
:102BC0002E30204D414348494E455F545950453AB7
:102BD0003344205072696E746572204B494E454DE6
:102BE00041544943533A43617274657369616E207D
:102BF00045585452554445525F434F554E543A310F
:102C000020555549443A63656465326132662D3416
:102C10003161322D343734382D396231322D6335FC
:102C2000356336326633363766660020204D3235DE
:102C3000302043004C434420436F6E7472617374C0
:102C40000047322F47332062616420706172616DEA
:102C500065746572730A00203B0020204D383531C1
:102C60002058005A2D50726F6265204F666673655A
:102C70007400436F6F6C696E672E2E2E00453120F5
:102C800025530020460020420020204D31303420C2
:102C900053004175746F2054656D7020436F6E74DE
:102CA000726F6C0020573A0042656420436F6F6C6E
:102CB000696E672E2E2E0042656420486561746936
:102CC0006E672E2E2E0023646566696E652044456E
:102CD0004641554C545F00004245445F004B442040
:102CE000004B4920004B5020002066696E697368D4
:102CF0006564212050757420746865206C6173745C
:102D0000204B702C204B6920616E64204B64206343
:102D10006F6E7374616E74732066726F6D2062657E
:102D20006C6F7720696E746F20436F6E666967758C
:102D3000726174696F6E2E680A00504944204175B3
:102D4000746F74756E6500206661696C656421201E
:102D500074696D656F75740A00504944204175743B
:102D60006F74756E6500206661696C65642120541E
:102D7000656D706572617475726520746F6F20681F
:102D80006967680A00504944204175746F74756E14
:102D90006500504944204379636C657300255320D6
:102DA00025692F256900204B643A2000204B693AA1
:102DB0002000204B703A200020436C6173736963DC
:102DC00020504944200A00204E6F206F76657273B0
:102DD000686F6F740A002054753A2000204B753AD2
:102DE0002000206D61783A2000206D696E3A200045
:102DF00020643A200020626961733A2000486561CE
:102E000074696E672E2E2E002073746172740A002E
:102E1000504944204175746F74756E650020666179
:102E2000696C6564212054656D706572617475729A
:102E30006520746F6F20686967680A0050494420F4
:102E40004175746F74756E65005049442041757406
:102E50006F74756E65003F28432979636C65732034
:102E60006E6F7420706C61757369626C6520283EAA
:102E70003D33292E0A00206661696C656421204279
:102E80006164206865617465722069640A00504954
:102E900044204175746F74756E6500205400205392
:102EA0000020450020204D3836204200486F7465D0
:102EB0006E642049646C652054696D656F7574009B
:102EC0004572723A207574663820666F6E74206E93
:102ED0006F7420696E697469616C697A65642E002B
:102EE0004572723A207574663820666F6E74206E73
:102EF0006F7420696E697469616C697A65642E000B
:102F00004572723A207574663820666F6E74206E52
:102F10006F7420696E697469616C697A65642E00EA
:102F2000200020003A00200020003A003A002568E6
:102F3000753A25303268750025303268753A25308B
:102F40003268750025303268752725303268750083
:102F5000256875642025303268753A2530326875E9
:102F600000FFE0FFD140A0C8A6A22FF80023AC00CC
:102F7000AF10FFFEFF05FFD0FFE0FFC1FFD1E24031
:102F8000A0C8A6A22FF800238127AC00AFFFD0FF76
:102F900064FFD1A5FFD0FF64FF64FFD1A4FFD0FF81
:102FA00016FFFE000C0F00FE07022503BB017FFE8B
:102FB00008FE08FE05080806000040F0C88888984A
:102FC0007810050808060000C0F88888888888F806
:102FD0000505050600012030F83020050808060028
:102FE000002070F820202020E00509090600FF20BD
:102FF00070A8A8B888887020070505070001D86C5C
:10300000366CD80509090600FFF8A88888888888E2
:10301000A8F8050A0A0600FE205050505088A8A8BB
:10302000887003030306000340A040FFFFFFFFFF7B
:10303000FFFFFFFFFFFFFFFFFFFFFFFFFFFFFFFFA0
:10304000FF0000000605FF010707060200808080E0
:1030500080800080030303060105A0A0A0050606EA
:1030600006000050F85050F8500509090600FF20EE
:1030700070A8A07028A87020050707060000C8C81F
:10308000102040989805070706000040A0A040A81F
:103090009068010303060205808080030909060188
:1030A000FF2040408080804040200309090601FF46
:1030B0008040402020204040800507070600002077
:1030C000A8702070A8200505050600012020F82022
:1030D000200203030601FFC0408005010106000332
:1030E000F8020202060100C0C0050707060000083A
:1030F000101020404080050707060000708898A83F
:10310000C8887003070706010040C040404040E007
:10311000050707060000708808102040F80507071B
:10312000060000F808103008887005070706000040
:1031300010305090F81010050707060000F880F0D6
:1031400008088870050707060000304080F088886E
:1031500070050707060000F808101020202005075A
:1031600007060000708888708888700507070600C9
:103170000070888878081060020505060100C0C04C
:1031800000C0C00206060601FFC0C000C0408003A8
:1031900005050601012040804020050303060002CA
:1031A000F800F8030505060101804020408005076E
:1031B0000706000070881020200020050707060081
:1031C000007088B8A8B880700507070600007088EE
:1031D00088F8888888050707060000F04848704886
:1031E00048F0050707060000708880808088700519
:1031F0000707060000F04848484848F0050707065A
:103200000000F88080F08080F8050707060000F8CD
:103210008080F0808080050707060000708880802D
:10322000988870050707060000888888F8888888CD
:10323000030707060100E04040404040E005070763
:1032400006000038101010109060050707060000F7
:103250008890A0C0A09088050707060000808080A5
:10326000808080F805070706000088D8A88888882D
:10327000880507070600008888C8A8988888050779
:103280000706000070888888888870050707060090
:1032900000F08888F08080800507070600007088AD
:1032A0008888A89068050707060000F08888F0A0C5
:1032B00090880507070600007088807008887005F0
:1032C0000707060000F82020202020200507070619
:1032D00000008888888888887005070706000088AD
:1032E000888888505020050707060000888888884D
:1032F000A8A8500507070600008888502050888835
:1033000005070706000088885020202020050707B1
:10331000060000F80810204080F80309090601FFA4
:10332000E080808080808080E005070706000080C4
:103330004040201010080309090601FFE02020206A
:1033400020202020E0050303060005205088050109
:10335000010600FEF8030303060105804020050571
:1033600005060000700878887805070706000080C9
:1033700080F0888888F00505050600007080808848
:103380007005070706000008087888888878050512
:10339000050600007088F080700507070600003001
:1033A0004840E04040400507070600FE70888888D6
:1033B0007808700507070600008080F088888888F4
:1033C0000307070601004000C0404040E00409092F
:1033D0000601FE100030101010109060050707065F
:1033E000000080808890E09088030707060100C0F5
:1033F0004040404040E0050505060000D0A8A8A8D0
:10340000A8050505060000B0C888888805050506DA
:10341000000070888888700507070600FEF088881D
:1034200088F080800507070600FE7888888878087D
:1034300008050505060000B0C88080800505050662
:10344000000078807008F00507070600002020F8CB
:103450002020201805050506000088888898680542
:10346000050506000088888850200505050600002F
:103470008888A8A8500505050600008850205088B7
:103480000507070600FE888888502040800505054E
:10349000060000F8102040F80309090601FF20404B
:1034A000404080404040200109090602FF808080A2
:1034B0008080808080800309090601FF80404040B1
:1034C000204040408005030306000248A890FF0307
:1034D00002260E0F3812133E1A1C180A072009097B
:1034E0000800010D0E2001400130013B0140013672
:1034F000016001310170012C0190012701B001220E
:1035000001C0011D01F00118011002130130020E6B
:10351000016002090190020401C002FF000003FAE9
:10352000004003F5008003F000D003EB002004E628
:10353000007004E100E004DC004005D700C005D2C3
:10354000004006CD00D006C8008007C3003008BE8A
:1035500000F008B900C009B400B00AAF00B00BAA6F
:1035600000D00CA500000EA000500F9B00C01096CC
:10357000005012910000148C00C0158700B0178213
:1035800000B0197D00D01B7800001E730040206E33
:103590000090226900F024640040275F0090295ABF
:1035A00000E02B5500102E500020304B001032460A
:1035B00000E033410090353C00103737007038325E
:1035C00000A0392D00B03A2800A03B2300603C1E2B
:1035D00000103D1900903D1400103E0F00703E0A8F
:1035E00000C03E0500003F0000403FFBFF803FF66B
:1035F000FFC03FF1FF2001400130013B0140013697
:10360000016001310170012C0190012701B00122FC
:1036100001C0011D01F00118011002130130020E5A
:10362000016002090190020401C002FF000003FAD8
:10363000004003F5008003F000D003EB002004E617
:10364000007004E100E004DC004005D700C005D2B2
:10365000004006CD00D006C8008007C3003008BE79
:1036600000F008B900C009B400B00AAF00B00BAA5E
:1036700000D00CA500000EA000500F9B00C01096BB
:10368000005012910000148C00C0158700B0178202
:1036900000B0197D00D01B7800001E730040206E22
:1036A0000090226900F024640040275F0090295AAE
:1036B00000E02B5500102E500020304B00103246F9
:1036C00000E033410090353C00103737007038324D
:1036D00000A0392D00B03A2800A03B2300603C1E1A
:1036E00000103D1900903D1400103E0F00703E0A7E
:1036F00000C03E0500003F0000403FFBFF803FF65A
:10370000FFC03FF1FF2001400130013B0140013685
:10371000016001310170012C0190012701B00122EB
:1037200001C0011D01F00118011002130130020E49
:10373000016002090190020401C002FF000003FAC7
:10374000004003F5008003F000D003EB002004E606
:10375000007004E100E004DC004005D700C005D2A1
:10376000004006CD00D006C8008007C3003008BE68
:1037700000F008B900C009B400B00AAF00B00BAA4D
:1037800000D00CA500000EA000500F9B00C01096AA
:10379000005012910000148C00C0158700B01782F1
:1037A00000B0197D00D01B7800001E730040206E11
:1037B0000090226900F024640040275F0090295A9D
:1037C00000E02B5500102E500020304B00103246E8
:1037D00000E033410090353C00103737007038323C
:1037E00000A0392D00B03A2800A03B2300603C1E09
:1037F00000103D1900903D1400103E0F00703E0A6D
:1038000000C03E0500003F0000403FFBFF803FF648
:10381000FFC03FF1FF726F746174696F6E206D615C
:10382000747269783A0A002001400130013B01407E
:103830000136016001310170012C0190012701B0B6
:10384000012201C0011D01F0011801100213013015
:10385000020E016002090190020401C002FF000093
:1038600003FA004003F5008003F000D003EB0020D2
:1038700004E6007004E100E004DC004005D700C06D
:1038800005D2004006CD00D006C8008007C3003036
:1038900008BE00F008B900C009B400B00AAF00B01B
:1038A0000BAA00D00CA500000EA000500F9B00C07A
:1038B0001096005012910000148C00C0158700B0C3
:1038C000178200B0197D00D01B7800001E730040E5
:1038D000206E0090226900F024640040275F009071
:1038E000295A00E02B5500102E500020304B0010BC
:1038F000324600E033410090353C0010373700700D
:10390000383200A0392D00B03A2800A03B230060D7
:103910003C1E00103D1900903D1400103E0F007039
:103920003E0A00C03E0500003F0000403FFBFF8014
:103930003FF6FFC03FF1FF5A5F6D6F76655F636FC3
:103940006D700A00616C736F20656E61626C6564F6
:10395000290A00206E6F742064697361626C65646B
:103960002E205368617265642077697468002E0A9E
:1039700000004D343031004D343032004732385A77
:1039800000473239503452540047323950345400D1
:103990004732394A2569004732394A3000473239BF
:1039A000503354300047323950324254300047329D
:1039B000380A4D31393049300A4D31303949300AF1
:1039C00047323950310A4D31303453300A4D313499
:1039D000305330004732380A4D31393049310A4DC1
:1039E00031303949310A47323950310A4D3130349A
:1039F00053300A4D3134305330004732394E503154
:103A00000047323950314300473239490047323993
:103A1000543000473239543100473239532D310088
:103A2000473239493939390A4732395032425430EC
:103A3000004732395700417869732000206D696E64
:103A40003A00206D61783A00534C4F570004000053
:103A50000501000300050100050400000005000346
:103A6000004572726F722077726974696E67207494
:103A70006F20454550524F4D210A0053544F50502E
:103A800045442E20005072696E7465722073746F05
:103A9000707065642064756520746F206572726F44
:103AA00072732E2046697820746865206572726F83
:103AB0007220616E6420757365204D393939207428
:103AC0006F20726573746172742E202854656D7056
:103AD00065726174757265206973207265736574AF
:103AE0002E2053657420697420616674657220729B
:103AF000657374617274696E67290A004E6F2043A2
:103B00006865636B73756D2077697468206C696E86
:103B100065206E756D6265722C204C617374204C4B
:103B2000696E653A20004E6F20436865636B73755C
:103B30006D2077697468206C696E65206E756D62A2
:103B400065722C204C617374204C696E653A2000BC
:103B5000636865636B73756D206D69736D61746304
:103B6000682C204C617374204C696E653A20004CBF
:103B7000696E65204E756D626572206973206E6F87
:103B800074204C617374204C696E65204E756D62B3
:103B900065722B312C204C617374204C696E653A30
:103BA00020004D3131300053657269616C207374AF
:103BB00061747573206D69736D617463680A005375
:103BC000442072656164206572726F720A00486FEA
:103BD00074656E642049646C652054696D656F7509
:103BE0007400486F74656E642049646C6520546984
:103BF0006D656F75740A004B494C4C206275747486
:103C00006F6E2F70696E002121204B494C4C206350
:103C100061757365642062792000746F6F206D7523
:103C2000636820696E6163746976652074696D6587
:103C3000202D2063757272656E7420636F6D6D61E7
:103C40006E643A20002121204B494C4C2063617561
:103C50007365642062792000627573793A2070611F
:103C60007573656420666F7220696E7075740A00E2
:103C7000627573793A2070617573656420666F723E
:103C800020757365720A00627573793A2070726FDD
:103C900063657373696E670A0053442043617264FD
:103CA0002052656D6F7665640053442043617264F1
:103CB00020496E736572746564004D313030305345
:103CC00000506C65617365205265736574005052D5
:103CD000494E5445522048414C5445440025533ADE
:103CE000202553004B494C4C45442E20005072690E
:103CF0006E7465722068616C7465642E206B696CEB
:103D00006C28292063616C6C6564210A0065636816
:103D10006F3A004572726F723A00556E6966696556
:103D20006420426564204C6576656C696E6700614D
:103D300063746976650A00696E002053797374654F
:103D40006D2076312E303120002020207C0A004E5C
:103D5000414E0020202E20202000207C0020666F75
:103D60007220004C43443A0A004353563A0A003A40
:103D70000A0A000A42656420546F706F67726170AE
:103D80006879205265706F727400205A3A200020C2
:103D9000793A200042656420583A200050726F62E0
:103DA000696E67204661696C65640A0050726F62D3
:103DB000696E67204661696C656400204A002020B6
:103DC0004D343231204900202047323920493939D9
:103DD000390A00446F6E652E0A0073746F72616752
:103DE0006520736C6F742E0A3F5573652030207404
:103DF0006F20003F496E76616C696420003F454545
:103E000050524F4D2073746F72616765206E6F74EE
:103E100020617661696C61626C652E0A00446F6E88
:103E2000652E0A0073746F7261676520736C6F741E
:103E30002E0A3F557365203020746F20003F496E75
:103E400076616C696420003F454550524F4D2073A8
:103E5000746F72616765206E6F7420617661696C42
:103E600061626C652E0A0020616E642074616B656E
:103E70002061206D6561737572656D656E742E0AC3
:103E8000006D6D20746869636B2E0A00427573695A
:103E90006E657373204361726420697320005265FC
:103EA0006D6F76652026204D6561737572652042C1
:103EB00065640052656D6F7665207368696D0050AA
:103EC0006C616365207368696D20756E646572202E
:103ED0006E6F7A7A6C65005C3A573A523A4D3A3FC7
:103EE000496E76616C696420502076616C75652E30
:103EF0000A0A004732392050322066696E697368B9
:103F000065642E0A005859206F75747369646520C2
:103F10007072696E7461626C652072616469757338
:103F20002E0A003F4572726F7220696E20427573CF
:103F3000696E6573732043617264206D656173758A
:103F400072656D656E742E0A004D616E75616C6CE4
:103F5000792070726F62696E6720756E7265616339
:103F60006861626C6520706F696E74732E0A002937
:103F70002E0A0050726F62696E672061726F756EF3
:103F8000642028004D65736820696E76616C6964F1
:103F9000617465642E2050726F62696E67206D6572
:103FA00073682E0A004D657368207A65726F6564C8
:103FB0002E0A0044656661756C742073746F7261BB
:103FC000676520736C6F7420302073656C65637453
:103FD00065642E0A004732384C300020696E7661E5
:103FE0006C6964617465642E0A0A004C6F636174C5
:103FF000696F6E7300456E74697265204D657368F4
:104000000062656420706C616E65206E6F726D6118
:104010006C203D205B00436F756C64206E6F7420D4
:10402000636F6D706C657465204C5346210A0043C4
:104030006F727265637465645F5A3D002553202575
:10404000692F2569000A0A002F0054696C74696E93
:1040500067206D65736820706F696E7420003F453E
:1040600072726F722070726F62696E6720706F6912
:104070006E742E2041626F7274696E67206F706576
:10408000726174696F6E2E0A00436F727265637499
:1040900065645F5A3D0054696C74696E6720506FA7
:1040A000696E740025532025692F33002F33290AA8
:1040B0000054696C74696E67206D65736820280010
:1040C0004170706C79696E672074657374207061DB
:1040D000747465726E2E0A0A002851292074657363
:1040E00074207061747465726E2E20283020746F95
:1040F0002032290A003F496E76616C6964200053C2
:1041000074616E6461726420446576696174696F7C
:104110006E3A20004D65616E204D657368204865DC
:10412000696768743A200023206F662073616D70A0
:104130006C65733A20000A4D657368206F6E6C7968
:10414000207061727469616C6C7920706F70756C2D
:10415000617465642E0A0A0050726F62696E67208E
:10416000506F696E740025532025692F2569002E34
:104170000A002F0050726F62696E67206D65736868
:1041800020706F696E7420000A4D657368206F6E31
:104190006C79207061727469616C6C7920706F70D9
:1041A000756C617465642E0A004D65736820506FEC
:1041B000696E74204D656173757265642061743A2F
:1041C00020004D656173757265004D656173757290
:1041D0006500506C616365205368696D2026204D31
:1041E00065617375726500506C6163652053686921
:1041F0006D2026204D656173757265004D6F76697F
:104200006E6720746F206E657874004D657368204A
:1042100045646974696E672053746F7070656400DB
:10422000446F6E652045646974696E67204D6573DF
:10423000680A00446F6E652045646974696E672082
:104240004D6573680046696E652054756E696E67CA
:10425000204D6573680028582C5929206F75747398
:10426000696465207072696E7461626C6520726148
:10427000646975732E0A004F6666736574206F75E6
:1042800074206F6620626F756E64732E2028302054
:10429000746F2031306D6D290A0A00496E76616CA9
:1042A0006964206D617020747970652E0A0A003F80
:1042B0002846296164652068656967687420666FAF
:1042C0007220426564204C6576656C20436F727283
:1042D000656374696F6E206E6F7420706C617573A6
:1042E00069626C652E0A0A003F43616E2774206183
:1042F0006374697661746520616E642064656163CE
:1043000074697661746520617420746865207361D6
:104310006D652074696D652E0A0A00426F7468200D
:104320005820262059206C6F636174696F6E73206A
:104330006D75737420626520737065636966696565
:10434000642E0A0A003F496E76616C69642000673A
:104350007269642073697A6520284A292073706520
:104360006369666965642028322D39292E0A003F69
:10437000285029686173652076616C756520696EC7
:1043800076616C69642028302D36292E0A0A003F98
:104390002856296572626F7365206C6576656C209E
:1043A000696D706C61757369626C652028302D349D
:1043B000292E0A0A003F28522965706574697469BC
:1043C0006F6E20636F756E7420696E76616C6964C0
:1043D0002028312B292E0A0A00446F696E67204776
:1043E00032390020646F6E652E0A0020496E7375A5
:1043F0006666696369656E7420646174610A00456C
:1044000078747261706F6C6174696E67206D65732A
:10441000682E2E2E000000803F00006D420000EB51
:104420004200C02F4300006A430000803F00006D3F
:10443000420000EB4200C02F4300006A43486F7403
:10444000656E6420746F6F20636F6C640A0066721F
:1044500065736800646F696E67002066696C653A11
:1044600020004E6F7720002F6175746F25632E67D3
:1044700000024C434420436F6E74726173743A209F
:10448000006D61726C696E66772E6F72670062757F
:10449000676669782D322E312E78001FFFFFFFFFEF
:1044A000FFFF600000000001FF400000000000FF6F
:1044B0008000000000007F83CF00000C303F87FFAA
:1044C00080000C301F867980000C000F8C30C78371
:1044D0008C30E78C30CFC7CC31F38C30DCECEC3354
:1044E000B98C30D86C6C33198C30D06C0C33198C7F
:1044F00030D86C0C33198C30DC6C0E3B198C30CFFF
:104500007C079F198C30C77C038F19400000000086
:104510000002600000000000061FFFFFFFFFFFF821
:104520002001400130013B014001360160013101B1
:1045300070012C0190012701B0012201C0011D0171
:10454000F00118011002130130020E01600209018E
:1045500090020401C002FF000003FA004003F500CE
:104560008003F000D003EB002004E6007004E100BB
:10457000E004DC004005D700C005D2004006CD00B5
:10458000D006C8008007C3003008BE00F008B9009C
:10459000C009B400B00AAF00B00BAA00D00CA5004F
:1045A000000EA000500F9B00C0109600501291000A
:1045B00000148C00C0158700B0178200B0197D0070
:1045C000D01B7800001E730040206E00902269000E
:1045D000F024640040275F0090295A00E02B55002A
:1045E000102E500020304B0010324600E0334100C6
:1045F00090353C001037370070383200A0392D005C
:10460000B03A2800A03B2300603C1E00103D19007A
:10461000903D1400103E0F00703E0A00C03E0500A1
:10462000003F0000403FFBFF803FF6FFC03FF1FF2F
:104630002020506C616E6E657242756666657242CE
:10464000797465733A20002046726565204D656D6A
:104650006F72793A200020436F6D70696C65643A1F
:10466000204A756E20203420323032360A00204C29
:1046700061737420557064617465643A203230321D
:10468000362D30352D3236207C20417574686F729E
:104690003A202857696C6C69616E53290A004D6194
:1046A000726C696E206275676669782D322E312EC4
:1046B000780A0020536F66747761726520526573C3
:1046C00065740A00205761746368646F67205265DF
:1046D0007365740A002042726F776E206F757420C4
:1046E00052657365740A002045787465726E616C5A
:1046F0002052657365740A00506F77657255700AB1
:104700000073746172740A004732385859004D3191
:10471000303031006F6B006572726F722077726992
:1047200074696E6720746F2066696C650A00446F57
:104730006E6520736176696E672066696C652E0A06
:10474000004D323900456E6473746F7073002553E9
:1047500020256320256320256320256300205A3A05
:104760000020593A0020583A00656E6473746F70E7
:1047700073206869743A200000002100240027009B
:104780002A002D0030003300010100000401070160
:104790000A0100000A0B02090C0D0E0807030401B0
:1047A0000000000000000000000000000000000009
:1047B00000000000000000000000000000001211D6
:1047C00010000000000000000000000000000000D9
:1047D0000000000000000000302E30323500302E86
:1047E0003100312E30004D6F766520246D6D003123
:1047F0003000000075430000754300007A434D6FA0
:1048000076652041786973004D6F7665202A004DEA
:104810006F7665204000200020002000FFFFFF434E
:10482000616E6E6F74206F70656E2073756264695F
:10483000722000220A00556E6B6E6F776E20636FD8
:104840006D6D616E643A2022004D657368206C6F57
:10485000616465642066726F6D20736C6F742000F4
:104860003F556E61626C6520746F206C6F616420CF
:104870006D65736820646174612E0A002045002014
:104880005A0020590020204D3932205800537465B9
:1048900070732070657220756E697400DB0FC93FFC
:1048A00045BCDA3F8FB30240FCF02740569461408C
:1048B000FE4B9B4084A5D840E0231841346A564102
:1048C000E859974164DBD5416E271742B4B755428A
:1048D000CE1A9742C8AED542B5885A43D40684BF93
:1048E000A65FA7BF7443E0BF10B11AC01C2C58C00C
:1048F000E8F697C0B849D6C04E4E17C124D355C16B
:10490000802497C1A0B5D5C1121A17C244AE55C2B2
:10491000781797C26CACD5C267885AC320746F6F82
:10492000206C6F6E6720657874727573696F6E2086
:1049300070726576656E7465640A0020636F6C64DE
:1049400020657874727573696F6E20707265766514
:104950006E7465640A0020453A00205A3A002059D6
:104960003A00583A006F6B0A00526573656E643AFC
:1049700020003344205072696E7465722052656164
:1049800064792E005072696E74696E672E2E2E0047
:104990005072696E74205061757365640001021075
:1049A0002020080810204010204080020102010849
:1049B00004020101020408102040808040201008F9
:1049C0000402018004020180402010080402010852
:1049D00004020101020408102040800102040810B2
:1049E00020408000002200250028002B002E0031EE
:1049F00000340002010000050108010B0105050556
:104A000005070508080808020202020A0A08080445
:104A10000404040101010101010101030303030373
:104A2000030303040707070C0C0C0C0C0C0C0C0202
:104A300002020206060606060606060B0B0B0B0B09
:104A40000B0B0B000F01F50011241FBECFEFD1E2BD
:104A5000DEBFCDBF00E00CBF84B78093A11C14BEA5
:104A60000FB6F894A89580916000886180936000EB
:104A7000109260000FBE16E0A0E0B2E0E2E7F3E4BF
:104A800003E00BBF02C007900D92AE35B107D9F716
:104A90002CE1AEE5B6E001C01D92A13AB207E1F704
:104AA00015E2C3E2D5E200E006C021970109802F9C
:104AB000FE010F94F09CC232D10780E00807A9F7ED
:104AC0000F94B6880D94A8A10C940000609119026F
:104AD00070911A02072E000C880B990B0F942F96D9
:104AE0002AE037ED43E25CE30F948E9620912B078A
:104AF00030912C0740912D0750912E070F948E96E0
:104B000060936D0270936E0280936F0290937002B7
:104B100008958091910B811104C08091770B80934F
:104B2000290C0895CF93DF93EC01CB01BA010F94C8
:104B30002F9620E030E040E251E40F94ED9D2AE012
:104B400037ED43E25CE30F94119D688379838A8398
:104B50009B83DF91CF910895CF93DF93EC01CB013D
:104B6000BA010F942F96688379838A839B83DF91A0
:104B7000CF910895CF93DF93EC01CB01BA010F944D
:104B80002F96688379838A839B83DF91CF910895E1
:104B9000809168118823F1F02FEF3FEF30933A02B4
:104BA00020933902815080936811E6EBFAE1882363
:104BB00051F08150990B2BE1289FF001299FF00DB6
:104BC0001124E451F54E8BE1A1EDBAE101900D9273
:104BD0008A95E1F720916811211105C08091731128
:104BE00080648093731181E090E0A0E0B0E0211137
:104BF00003C080E090E0DC0180936F0B9093700B1A
:104C0000A093710BB093720B1092740B81E08093A0
:104C1000690B83E080936A02089581E080936906BE
:104C2000089582E0809369060895FC014083089509
:104C3000CF93DF93EC01642F70E090E080E00F945D
:104C40002F9629EC38EC48EC5EE30F94ED9D20E0C4
:104C500030E040E05FE30F94119D0F945A9E68830B
:104C6000DF91CF91089580915D02863E08F486EE33
:104C700080935D020C940ADAE091910B86E0E802E1
:104C8000F0011124E558F44F8091770B90E0958363
:104C900084830895CF93DF93EC01CB01BA010F9485
:104CA0002F9620E030E048EC52E40F94ED9D2FE683
:104CB00032E143E85AE30F94119D688379838A8334
:104CC0009B83DF91CF910895CF93DF93EC01CB01CC
:104CD000BA010F942F9620E030E048EC52E40F9494
:104CE000ED9D2FE632E143E85AE30F94119D68836E
:104CF00079838A839B83DF91CF910895CF93DF934C
:104D0000EC01CB01BA010F942D962AE037ED43E276
:104D10005DE30F94ED9D0F945A9E688379838A8397
:104D20009B83DF91CF910895CF93DF93EC01CB016B
:104D3000BA010F942F962AE037ED43E25DE30F941A
:104D4000ED9D688379838A839B83DF91CF9108955A
:104D5000CF93DF93EC01CB01BA010F942F966883B8
:104D600079838A839B83DF91CF910895FC015183DE
:104D700040830895CF93DF93EC01CB01BA010F94E8
:104D80002F9620E030E04AE754E40F94ED9D27E1B0
:104D900037EB41ED58E30F94119D688379838A8343
:104DA0009B83DF91CF9108958091260890912708E9
:104DB00020912408309125088217930724F49093BA
:104DC000250880932408089580912408909125084F
:104DD00020912608309127082817390724F490934A
:104DE0002708809326080895CF92DF92EF92FF92D2
:104DF0006B017C0120E030E0A9010F94299687FD2A
:104E000010C06DEB77E386E095E3A70196010F9460
:104E1000119D42E050E0FF90EF90DF90CF900D9415
:104E200081746DEB77E386E095EBEFCF0F942F96CF
:104E300020E030E04AE754E40F94ED9D27E137EBA2
:104E400041ED58E30F94119DCFCFCB010C94F8AEF8
:104E500080916A02882351F06091770B7091780BF2
:104E600030E020E041E081E00C9420DD08950F93D4
:104E70001F93CF93DF93CDB7DEB762970FB6F89449
:104E8000DEBF0FBECDBF80910B028F9380910A02CF
:104E90008F9384E09EE09F938F938E010F5F1F4F4F
:104EA0001F930F930F94C295C8010F945C110F903C
:104EB0000F900F900F900F900F9062960FB6F8948E
:104EC000DEBF0FBECDBFDF91CF911F910F9108952F
:104ED000EF92FF920F931F93CF93DF93CDB7DEB77F
:104EE000A8970FB6F894DEBF0FBECDBFF62EE72E03
:104EF000909103079F93909102079F93282F082E6C
:104F0000000C330B3F938F9380E49FE09F938F932C
:104F10008E010F5F1F4F1F930F930F94C295F801DF
:104F200001900020E9F7CF01209103072F932091F2
:104F300002072F93EF92FF9201979F938F930F9405
:104F4000C295C8010F945C110FB6F894DEBF0FBE76
:104F5000CDBFA8960FB6F894DEBF0FBECDBFDF91D0
:104F6000CF911F910F91FF90EF9008956EE47FE035
:104F70008CE4AECF6DE57FE083E5AACF0F945F2789
:104F80008CE49EE00D94032D0C94DCBBCF92DF9259
:104F9000EF92FF9281E08093080780916C069091D8
:104FA0006D06892B41F180916C0690916D062AE087
:104FB00037ED43EA5BEB1816190624F42AE037EDC7
:104FC00043EA5BE36091FE067091FF068091000763
:104FD000909101070F94119D6093FE067093FF0658
:104FE000809300079093010710926D0610926C0653
:104FF00082E080936A0280916A028823A9F120E00E
:1050000030E04AE754E46091FE067091FF0680911B
:105010000007909101070F948E960F94559E6B0197
:105020007C0125E030E040E050E00F94759CA70142
:105030009601261B370B480B590BCA01B9010F9477
:105040002F9620E030E04AE754E40F94ED9D42E0D3
:1050500050E00F948174BC018DE29DE0FF90EF90D1
:10506000DF90CF900C941CDEFF90EF90DF90CF90FC
:10507000089570E090E080E00F942F9629EC38ECD2
:1050800048EC5EE30F94ED9D20E030E040E05FE30C
:105090000F94119D0F945A9E862F0C9455AF9091AA
:1050A0004D0781E089270D944027CF92DF92EF9240
:1050B000FF920F942F9620E030E048EC52E40F94DA
:1050C000ED9D2FE632E143E85AE30F94119D6B0109
:1050D0007C0120E030E0A9010F9429962DEB37E305
:1050E00046E055E387FF04C02DEB37E346E055EB80
:1050F000C701B6010F94119DFF90EF90DF90CF9004
:105100000C9424B1CF92DF92EF92FF920F942F96DE
:1051100020E030E040E251E40F94ED9D2AE037EDCD
:1051200043E25CE30F94119D6B017C0120E030E0D1
:10513000A9010F9429962DEB37E346E055E387FF4D
:1051400004C02DEB37E346E055EBC701B6010F94E1
:10515000119D43E050E0FF90EF90DF90CF900C94D2
:105160003FB00F942F960C94C1B86FE77FE382E0B5
:105170000D945F8061E87FE381E00D945F8063E8D8
:105180007FE380E00D945F8062E471E483E00D943E
:105190005F800F94096C0F944F29882331F08FEEB4
:1051A00094E09093250B8093240B0C94C1AD862F33
:1051B0000C942CAF0F94391983E080936A02089500
:1051C000CF93DF9300D01F92CDB7DEB78FEF8983E7
:1051D0008A838B838FE78C8360E0CE0101960F94E6
:1051E000D7170F900F900F900F90DF91CF910895E8
:1051F000CF93DF9300D01F92CDB7DEB78FEF8983B7
:105200001A821B828FE78C8360E0CE0101960F9497
:10521000D7170F900F900F900F90DF91CF910895B7
:10522000CF93DF9300D01F92CDB7DEB78FEF898386
:1052300089E18A831B828FE78C8360E0CE0101962F
:105240000F94D7170F900F900F900F90DF91CF9181
:105250000895CF93DF9300D01F92CDB7DEB78FEFC5
:1052600089838BE48A831B828FE78C8360E0CE0185
:1052700001960F94D7170F900F900F900F90DF911A
:10528000CF910895CF93DF9300D01F92CDB7DEB7B3
:1052900019821A828FEF8B838FE78C8360E0CE01B7
:1052A00001960F94D7170F900F900F900F90DF91EA
:1052B000CF910895CF93DF9300D01F92CDB7DEB783
:1052C00019828FEF8A838B838FE78C8360E0CE0116
:1052D00001960F94D7170F900F900F900F90DF91BA
:1052E000CF910895CF93DF9300D01F92CDB7DEB753
:1052F0008FEF89831A828B838FE78C8360E0CE01E6
:1053000001960F94D7170F900F900F900F90DF9189
:10531000CF910895CF93DF9300D01F92CDB7DEB722
:1053200088EE93E0A0E0B0E089839A83AB83BC83EE
:10533000BE016F5F7F4F88E70F94492B0F900F904E
:105340000F900F90DF91CF910895CF92DF92EF925F
:10535000FF926B017C0120E030E0A9010F942996B7
:1053600087FD0EC06DEB77E386E095E3A70196011C
:105370000F94119DFF90EF90DF90CF900C94D7AFDA
:105380006DEB77E386E095EBF1CF0F942F962AE053
:1053900037ED43E25DE30F94ED9DD7CF0F942F9649
:1053A000D4CF0F942D962AE037ED43E25DE30F94BE
:1053B000ED9D0F945A9E0F942D960C94D7AFCF92DB
:1053C000DF92EF92FF926B017C0120E030E0A901B7
:1053D0000F94299687FD26C06DEB77E386E095E371
:1053E000A70196010F94119D6B017C0120E030E034
:1053F000A9010F94299620E030E040E05FE387FFA9
:1054000004C020E030E040E05FEBC701B6010F943C
:10541000119D0F94559ECB01FF90EF90DF90CF90A0
:105420000C944EAE6DEB77E386E095EBD9CF0F94FD
:105430002F96C5CFCF92DF92EF92FF920F942F96C7
:1054400020E030E048EC52E40F94ED9D2FE632E18D
:1054500043E85AE30F94119D6B017C0120E030E09A
:10546000A9010F9429962DEB37E346E055E387FF1A
:1054700004C02DEB37E346E055EBC701B6010F94AE
:10548000119DFF90EF90DF90CF900D94CE750C940E
:10549000F9930C94F9930C94AB930C94AB930C94F8
:1054A000AB930C94AB9363E972E084E690E00E94C6
:1054B00080CA70E060E08AE090E00E9480CA6AEBF7
:1054C00072E084E690E00C9480CA0E94C0AAEBCF00
:1054D0008111E9CF68E270E080E991E00C9480CA24
:1054E0000E94C98FF5CF0E9406C6F2CFCF92DF92FD
:1054F000EF92FF92CF93C82F0F948E796B017C01AE
:1055000024EA30E74DE75FE360910D0270910E02EF
:1055100080910F02909110020F94299687FD18C078
:105520008AEF90E0A0E0B0E08C0D9D1DAE1DBF1D88
:105530008093840690938506A0938606B093870691
:10554000C0930102CF91FF90EF90DF90CF9008952C
:1055500080E090E0DC01E8CF8F929F92AF92BF9203
:10556000CF92DF92EF92FF92CF93DF9300D000D0E3
:105570001F921F92CDB7DEB7809105070F946C2064
:105580004B015C0189829A82AB82BC8280910607C2
:105590000F943D206B017C01CD82DE82EF82F88684
:1055A000CE0101960F940824882311F18092850C76
:1055B0009092860CA092870CB092880CC092890CB5
:1055C000D0928A0CE0928B0CF0928C0C8EEF289685
:1055D0000FB6F894DEBF0FBECDBFDF91CF91FF9025
:1055E000EF90DF90CF90BF90AF909F908F907ECF45
:1055F00028960FB6F894DEBF0FBECDBFDF91CF91D6
:10560000FF90EF90DF90CF90BF90AF909F908F90E2
:105610000895CF92DF92EF92FF9220E030E04AE7C8
:1056200054E46091FE067091FF068091000790910E
:1056300001070F948E960F94559E6B017C0125E017
:1056400030E040E050E00F94759CA7019601261BC6
:10565000370B480B590BCA01B9010F942F9620E064
:1056600030E04AE754E40F94ED9DFF90EF90DF9017
:10567000CF900895843021E0920714F084E091E007
:105680009093DE118093DD1110922C080C940AF394
:105690008091770B9091780BEDCF8091770B909163
:1056A000780BE8CF6091770B7091780B8091790B34
:1056B00090917A0B41E00D949827F4CF40E450E0AC
:1056C000BC0186E29BE00D9472954F925F926F92BF
:1056D0007F928F929F92AF92BF92CF92DF92EF9282
:1056E000FF920F931F93CF93DF93CDB7DEB7C554CF
:1056F000D1090FB6F894DEBF0FBECDBF809104076D
:10570000882309F4BAC080916A0B10926A0B88232F
:1057100009F46AC0C0900C02D090060710910507EA
:105720006EE97FE0CE0101960E94B8F2812F012E32
:10573000000C990B9F931F9348E4E42E46E0F42E4F
:10574000FF92EF928E010F5B1F4F1F930F930F94E9
:1057500078A1B801CE0101960E9441F269E50E944C
:105760002CF25C018D2D0D2C000C990B9F93DF9278
:10577000FF92EF921F930F930F9478A1B801C50188
:105780000E9441F262E50E942CF27C011F92CF92AE
:105790008BE496E09F938F931F930F930F9478A1C0
:1057A000B801C7010E9441F2CE01019687DF0FB612
:1057B000F894DEBF0FBECDBFCB5BDF4F0FB6F894C2
:1057C000DEBF0FBECDBFDF91CF911F910F91FF9034
:1057D000EF90DF90CF90BF90AF909F908F907F9091
:1057E0006F905F904F90089581E0809308078091BB
:1057F0006F0B9091700BA091710BB091720BB7FF72
:105800000CC088E190E0A0E0B0E080936F0B909333
:10581000700BA093710BB093720B80916F0B9091F2
:10582000700BA091710BB091720B4997A105B10556
:1058300044F010926F0B1092700B1092710B10923B
:10584000720B60916F0B7091700B8091710B909146
:10585000720B25E030E040E050E00F94539C615023
:105860002150233028F489E0633028F086E003C01B
:1058700084E06330D8F380930C0260916F0B7091D9
:10588000700B8091710B9091720B25E030E040E03D
:1058900050E00F94539C122F6B0180916A02882371
:1058A00009F406C18091761A8C3308F58091781A34
:1058B0008830E8F081E08093621A01E321E348E058
:1058C00065E282E49AE10F948A7C8091761A8833AB
:1058D00070F48091781A8A3050F01092621A0DE2BA
:1058E0002DE24AE067E282E49AE10F948A7C81E04B
:1058F0008093621A3EE0B32E8091761AB81698F023
:105900008091781A8B1578F02BE2A22E01E021E02D
:105910004B2D6A2D82E49AE10F948A7C99E0A90EBE
:1059200088E5A812F3CF99E0B90E8BE3B812E4CF63
:1059300044E0411B69E0469F402D1124465F842FBF
:1059400090E009962091761A2817190609F074F448
:105950008091781A841750F06C9D602D1124695D38
:1059600009E029E082E49AE10F948A7C81E0809347
:10597000621A8091761A883008F045C08C2D0F94F9
:105980006C202B013C01812F0F943D204B015C01C9
:1059900020910F0730911007409111075091120785
:1059A000C301B2010F94119D2B013C0120911307FB
:1059B000309114074091150750911607C501B401A5
:1059C0000F94119D4B015C0185E08093791A07E0EB
:1059D00000937A1A82E699E40E9402DCC301B201C4
:1059E0000E94B1B00E9419DE8AE48093791A009374
:1059F0007A1A83EB9FE00E9402DCC501B4010E9489
:105A0000B1B00E9419DE8091761A813408F050C03E
:105A10008091781A873308F44BC088E290E0A0E0C8
:105A2000B0E089839A83AB83BC8305E00093791A45
:105A300080E4B82EB0927A1ACE0101960E94ACDAB8
:105A40008C2D0F940C7581EB9FE00E9468DC812FF8
:105A50000F940C758FEA9FE00E9468DC8AE48093C3
:105A6000791AB0927A1A8CEA9FE00E9402DC0C9DAF
:105A7000F0010D9DF00D1124E10FF11DEE0FFF1F40
:105A8000EE0FFF1FEA55F44F80809180A280B38013
:105A9000A5019401C501B4010F9414A0811122C085
:105AA00042E050E0C501B4010F9481740E9419DEF8
:105AB00080910507082E000C990B8C159D0549F463
:105AC00080910607082E000C990B1817190609F487
:105AD00073CEC0920507109306073EDD82E08093E7
